{
  "contractName": "MarginTrading",
  "abi": [
    {
      "inputs": [
        {
          "internalType": "address",
          "name": "_uniswapRouter",
          "type": "address"
        },
        {
          "internalType": "address",
          "name": "_collateralToken",
          "type": "address"
        },
        {
          "internalType": "address",
          "name": "_borrowToken",
          "type": "address"
        }
      ],
      "stateMutability": "nonpayable",
      "type": "constructor"
    },
    {
      "inputs": [],
      "name": "LIQUIDATION_THRESHOLD",
      "outputs": [
        {
          "internalType": "uint256",
          "name": "",
          "type": "uint256"
        }
      ],
      "stateMutability": "view",
      "type": "function",
      "constant": true
    },
    {
      "inputs": [
        {
          "internalType": "address",
          "name": "",
          "type": "address"
        }
      ],
      "name": "borrowAmounts",
      "outputs": [
        {
          "internalType": "uint256",
          "name": "",
          "type": "uint256"
        }
      ],
      "stateMutability": "view",
      "type": "function",
      "constant": true
    },
    {
      "inputs": [],
      "name": "borrowToken",
      "outputs": [
        {
          "internalType": "contract IERC20",
          "name": "",
          "type": "address"
        }
      ],
      "stateMutability": "view",
      "type": "function",
      "constant": true
    },
    {
      "inputs": [],
      "name": "collateralToken",
      "outputs": [
        {
          "internalType": "contract IERC20",
          "name": "",
          "type": "address"
        }
      ],
      "stateMutability": "view",
      "type": "function",
      "constant": true
    },
    {
      "inputs": [
        {
          "internalType": "address",
          "name": "",
          "type": "address"
        }
      ],
      "name": "deposits",
      "outputs": [
        {
          "internalType": "uint256",
          "name": "",
          "type": "uint256"
        }
      ],
      "stateMutability": "view",
      "type": "function",
      "constant": true
    },
    {
      "inputs": [],
      "name": "owner",
      "outputs": [
        {
          "internalType": "address",
          "name": "",
          "type": "address"
        }
      ],
      "stateMutability": "view",
      "type": "function",
      "constant": true
    },
    {
      "inputs": [],
      "name": "uniswapRouter",
      "outputs": [
        {
          "internalType": "contract IUniswapV2Router02",
          "name": "",
          "type": "address"
        }
      ],
      "stateMutability": "view",
      "type": "function",
      "constant": true
    },
    {
      "inputs": [
        {
          "internalType": "uint256",
          "name": "amount",
          "type": "uint256"
        }
      ],
      "name": "deposit",
      "outputs": [],
      "stateMutability": "nonpayable",
      "type": "function"
    },
    {
      "inputs": [
        {
          "internalType": "uint256",
          "name": "amount",
          "type": "uint256"
        }
      ],
      "name": "borrow",
      "outputs": [],
      "stateMutability": "nonpayable",
      "type": "function"
    },
    {
      "inputs": [
        {
          "internalType": "address",
          "name": "user",
          "type": "address"
        }
      ],
      "name": "liquidate",
      "outputs": [],
      "stateMutability": "nonpayable",
      "type": "function"
    }
  ],
  "bytecode": "0x60806040523480156200001157600080fd5b50604051620014eb380380620014eb8339818101604052810190620000379190620001ad565b336000806101000a81548173ffffffffffffffffffffffffffffffffffffffff021916908373ffffffffffffffffffffffffffffffffffffffff16021790555082600160006101000a81548173ffffffffffffffffffffffffffffffffffffffff021916908373ffffffffffffffffffffffffffffffffffffffff16021790555081600260006101000a81548173ffffffffffffffffffffffffffffffffffffffff021916908373ffffffffffffffffffffffffffffffffffffffff16021790555080600360006101000a81548173ffffffffffffffffffffffffffffffffffffffff021916908373ffffffffffffffffffffffffffffffffffffffff16021790555050505062000209565b600080fd5b600073ffffffffffffffffffffffffffffffffffffffff82169050919050565b6000620001758262000148565b9050919050565b620001878162000168565b81146200019357600080fd5b50565b600081519050620001a7816200017c565b92915050565b600080600060608486031215620001c957620001c862000143565b5b6000620001d98682870162000196565b9350506020620001ec8682870162000196565b9250506040620001ff8682870162000196565b9150509250925092565b6112d280620002196000396000f3fe608060405234801561001057600080fd5b506004361061009e5760003560e01c806390a8ae9b1161006657806390a8ae9b14610149578063b2016bd414610167578063b6b55f2514610185578063c5ebeaec146101a1578063fc7e286d146101bd5761009e565b80632f865568146100a3578063456dc17a146100bf578063735de9f7146100dd578063812e06cc146100fb5780638da5cb5b1461012b575b600080fd5b6100bd60048036038101906100b89190610ad9565b6101ed565b005b6100c76105fd565b6040516100d49190610b65565b60405180910390f35b6100e5610623565b6040516100f29190610ba1565b60405180910390f35b61011560048036038101906101109190610ad9565b610649565b6040516101229190610bd5565b60405180910390f35b610133610661565b6040516101409190610bff565b60405180910390f35b610151610685565b60405161015e9190610bd5565b60405180910390f35b61016f61068a565b60405161017c9190610b65565b60405180910390f35b61019f600480360381019061019a9190610c46565b6106b0565b005b6101bb60048036038101906101b69190610c46565b6107ef565b005b6101d760048036038101906101d29190610ad9565b610a4f565b6040516101e49190610bd5565b60405180910390f35b6000600460008373ffffffffffffffffffffffffffffffffffffffff1673ffffffffffffffffffffffffffffffffffffffff1681526020019081526020016000205490506000600560008473ffffffffffffffffffffffffffffffffffffffff1673ffffffffffffffffffffffffffffffffffffffff1681526020019081526020016000205490506069826102829190610ca2565b60648261028f9190610ca2565b116102cf576040517f08c379a00000000000000000000000000000000000000000000000000000000081526004016102c690610d41565b60405180910390fd5b6000600267ffffffffffffffff8111156102ec576102eb610d61565b5b60405190808252806020026020018201604052801561031a5781602001602082028036833780820191505090505b509050600260009054906101000a900473ffffffffffffffffffffffffffffffffffffffff168160008151811061035457610353610d90565b5b602002602001019073ffffffffffffffffffffffffffffffffffffffff16908173ffffffffffffffffffffffffffffffffffffffff1681525050600360009054906101000a900473ffffffffffffffffffffffffffffffffffffffff16816001815181106103c5576103c4610d90565b5b602002602001019073ffffffffffffffffffffffffffffffffffffffff16908173ffffffffffffffffffffffffffffffffffffffff16815250506000600260009054906101000a900473ffffffffffffffffffffffffffffffffffffffff1673ffffffffffffffffffffffffffffffffffffffff1663095ea7b3600160009054906101000a900473ffffffffffffffffffffffffffffffffffffffff16866040518363ffffffff1660e01b8152600401610480929190610dbf565b6020604051808303816000875af115801561049f573d6000803e3d6000fd5b505050506040513d601f19601f820116820180604052508101906104c39190610e20565b50600160009054906101000a900473ffffffffffffffffffffffffffffffffffffffff1673ffffffffffffffffffffffffffffffffffffffff166338ed173985838530426040518663ffffffff1660e01b8152600401610527959493929190610f0b565b6000604051808303816000875af1158015610546573d6000803e3d6000fd5b505050506040513d6000823e3d601f19601f8201168201806040525081019061056f91906110a4565b50600460008673ffffffffffffffffffffffffffffffffffffffff1673ffffffffffffffffffffffffffffffffffffffff16815260200190815260200160002060009055600560008673ffffffffffffffffffffffffffffffffffffffff1673ffffffffffffffffffffffffffffffffffffffff168152602001908152602001600020600090555050505050565b600360009054906101000a900473ffffffffffffffffffffffffffffffffffffffff1681565b600160009054906101000a900473ffffffffffffffffffffffffffffffffffffffff1681565b60056020528060005260406000206000915090505481565b60008054906101000a900473ffffffffffffffffffffffffffffffffffffffff1681565b606981565b600260009054906101000a900473ffffffffffffffffffffffffffffffffffffffff1681565b600081116106f3576040517f08c379a00000000000000000000000000000000000000000000000000000000081526004016106ea90611139565b60405180910390fd5b600260009054906101000a900473ffffffffffffffffffffffffffffffffffffffff1673ffffffffffffffffffffffffffffffffffffffff166323b872dd3330846040518463ffffffff1660e01b815260040161075293929190611159565b6020604051808303816000875af1158015610771573d6000803e3d6000fd5b505050506040513d601f19601f820116820180604052508101906107959190610e20565b5080600460003373ffffffffffffffffffffffffffffffffffffffff1673ffffffffffffffffffffffffffffffffffffffff16815260200190815260200160002060008282546107e59190611190565b9250508190555050565b6000600460003373ffffffffffffffffffffffffffffffffffffffff1673ffffffffffffffffffffffffffffffffffffffff1681526020019081526020016000205411610871576040517f08c379a000000000000000000000000000000000000000000000000000000000815260040161086890611210565b60405180910390fd5b600a600460003373ffffffffffffffffffffffffffffffffffffffff1673ffffffffffffffffffffffffffffffffffffffff168152602001908152602001600020546108bd9190610ca2565b6064600560003373ffffffffffffffffffffffffffffffffffffffff1673ffffffffffffffffffffffffffffffffffffffff168152602001908152602001600020548361090a9190611190565b6109149190610ca2565b1115610955576040517f08c379a000000000000000000000000000000000000000000000000000000000815260040161094c9061127c565b60405180910390fd5b80600560003373ffffffffffffffffffffffffffffffffffffffff1673ffffffffffffffffffffffffffffffffffffffff16815260200190815260200160002060008282546109a49190611190565b92505081905550600360009054906101000a900473ffffffffffffffffffffffffffffffffffffffff1673ffffffffffffffffffffffffffffffffffffffff1663a9059cbb33836040518363ffffffff1660e01b8152600401610a08929190610dbf565b6020604051808303816000875af1158015610a27573d6000803e3d6000fd5b505050506040513d601f19601f82011682018060405250810190610a4b9190610e20565b5050565b60046020528060005260406000206000915090505481565b6000604051905090565b600080fd5b600080fd5b600073ffffffffffffffffffffffffffffffffffffffff82169050919050565b6000610aa682610a7b565b9050919050565b610ab681610a9b565b8114610ac157600080fd5b50565b600081359050610ad381610aad565b92915050565b600060208284031215610aef57610aee610a71565b5b6000610afd84828501610ac4565b91505092915050565b6000819050919050565b6000610b2b610b26610b2184610a7b565b610b06565b610a7b565b9050919050565b6000610b3d82610b10565b9050919050565b6000610b4f82610b32565b9050919050565b610b5f81610b44565b82525050565b6000602082019050610b7a6000830184610b56565b92915050565b6000610b8b82610b32565b9050919050565b610b9b81610b80565b82525050565b6000602082019050610bb66000830184610b92565b92915050565b6000819050919050565b610bcf81610bbc565b82525050565b6000602082019050610bea6000830184610bc6565b92915050565b610bf981610a9b565b82525050565b6000602082019050610c146000830184610bf0565b92915050565b610c2381610bbc565b8114610c2e57600080fd5b50565b600081359050610c4081610c1a565b92915050565b600060208284031215610c5c57610c5b610a71565b5b6000610c6a84828501610c31565b91505092915050565b7f4e487b7100000000000000000000000000000000000000000000000000000000600052601160045260246000fd5b6000610cad82610bbc565b9150610cb883610bbc565b9250828202610cc681610bbc565b91508282048414831517610cdd57610cdc610c73565b5b5092915050565b600082825260208201905092915050565b7f4e6f74206c6971756964617461626c6500000000000000000000000000000000600082015250565b6000610d2b601083610ce4565b9150610d3682610cf5565b602082019050919050565b60006020820190508181036000830152610d5a81610d1e565b9050919050565b7f4e487b7100000000000000000000000000000000000000000000000000000000600052604160045260246000fd5b7f4e487b7100000000000000000000000000000000000000000000000000000000600052603260045260246000fd5b6000604082019050610dd46000830185610bf0565b610de16020830184610bc6565b9392505050565b60008115159050919050565b610dfd81610de8565b8114610e0857600080fd5b50565b600081519050610e1a81610df4565b92915050565b600060208284031215610e3657610e35610a71565b5b6000610e4484828501610e0b565b91505092915050565b600081519050919050565b600082825260208201905092915050565b6000819050602082019050919050565b610e8281610a9b565b82525050565b6000610e948383610e79565b60208301905092915050565b6000602082019050919050565b6000610eb882610e4d565b610ec28185610e58565b9350610ecd83610e69565b8060005b83811015610efe578151610ee58882610e88565b9750610ef083610ea0565b925050600181019050610ed1565b5085935050505092915050565b600060a082019050610f206000830188610bc6565b610f2d6020830187610bc6565b8181036040830152610f3f8186610ead565b9050610f4e6060830185610bf0565b610f5b6080830184610bc6565b9695505050505050565b600080fd5b6000601f19601f8301169050919050565b610f8482610f6a565b810181811067ffffffffffffffff82111715610fa357610fa2610d61565b5b80604052505050565b6000610fb6610a67565b9050610fc28282610f7b565b919050565b600067ffffffffffffffff821115610fe257610fe1610d61565b5b602082029050602081019050919050565b600080fd5b60008151905061100781610c1a565b92915050565b600061102061101b84610fc7565b610fac565b9050808382526020820190506020840283018581111561104357611042610ff3565b5b835b8181101561106c57806110588882610ff8565b845260208401935050602081019050611045565b5050509392505050565b600082601f83011261108b5761108a610f65565b5b815161109b84826020860161100d565b91505092915050565b6000602082840312156110ba576110b9610a71565b5b600082015167ffffffffffffffff8111156110d8576110d7610a76565b5b6110e484828501611076565b91505092915050565b7f416d6f756e74206d7573742062652067726561746572207468616e2030000000600082015250565b6000611123601d83610ce4565b915061112e826110ed565b602082019050919050565b6000602082019050818103600083015261115281611116565b9050919050565b600060608201905061116e6000830186610bf0565b61117b6020830185610bf0565b6111886040830184610bc6565b949350505050565b600061119b82610bbc565b91506111a683610bbc565b92508282019050808211156111be576111bd610c73565b5b92915050565b7f4e6f20636f6c6c61746572616c206465706f7369746564000000000000000000600082015250565b60006111fa601783610ce4565b9150611205826111c4565b602082019050919050565b60006020820190508181036000830152611229816111ed565b9050919050565b7f426f72726f77206c696d69742065786365656465640000000000000000000000600082015250565b6000611266601583610ce4565b915061127182611230565b602082019050919050565b6000602082019050818103600083015261129581611259565b905091905056fea2646970667358221220db4435f8ea5e32de14d54bed3fc92587a915ba94381cc7a80969312f8c4329d264736f6c63430008130033",
  "immutableReferences": {},
  "source": "// SPDX-License-Identifier: MIT\r\npragma solidity ^0.8.19;\r\n\r\nimport \"@openzeppelin/contracts/token/ERC20/IERC20.sol\";\r\nimport \"@uniswap/v2-periphery/contracts/interfaces/IUniswapV2Router02.sol\";\r\n\r\ncontract MarginTrading {\r\n    address public owner;\r\n    IUniswapV2Router02 public uniswapRouter;\r\n    IERC20 public collateralToken; //   \r\n    IERC20 public borrowToken; //   \r\n\r\n    mapping(address => uint256) public deposits;\r\n    mapping(address => uint256) public borrowAmounts;\r\n\r\n    uint256 public constant LIQUIDATION_THRESHOLD = 105; // 105%\r\n\r\n    constructor(\r\n        address _uniswapRouter,\r\n        address _collateralToken,\r\n        address _borrowToken\r\n    ) {\r\n        owner = msg.sender;\r\n        uniswapRouter = IUniswapV2Router02(_uniswapRouter);\r\n        collateralToken = IERC20(_collateralToken);\r\n        borrowToken = IERC20(_borrowToken);\r\n    }\r\n\r\n    //  \r\n    function deposit(uint256 amount) external {\r\n        require(amount > 0, \"Amount must be greater than 0\");\r\n        collateralToken.transferFrom(msg.sender, address(this), amount);\r\n        deposits[msg.sender] += amount;\r\n    }\r\n\r\n    //  \r\n    function borrow(uint256 amount) external {\r\n        require(deposits[msg.sender] > 0, \"No collateral deposited\");\r\n        require(\r\n            (amount + borrowAmounts[msg.sender]) * 100 <=\r\n                deposits[msg.sender] * 10,\r\n            \"Borrow limit exceeded\"\r\n        );\r\n        borrowAmounts[msg.sender] += amount;\r\n        borrowToken.transfer(msg.sender, amount);\r\n    }\r\n\r\n    //  \r\n    function liquidate(address user) external {\r\n        uint256 collateralValue = deposits[user];\r\n        uint256 debtValue = borrowAmounts[user];\r\n\r\n        require(\r\n            debtValue * 100 > collateralValue * LIQUIDATION_THRESHOLD,\r\n            \"Not liquidatable\"\r\n        );\r\n\r\n        //     Uniswap\r\n        address[] memory path = new address[](2); //     \r\n        path[0] = address(collateralToken);\r\n        path[1] = address(borrowToken);\r\n\r\n        uint256 amountOutMin = 0; //  \r\n        collateralToken.approve(address(uniswapRouter), collateralValue);\r\n\r\n        uniswapRouter.swapExactTokensForTokens(\r\n            collateralValue,\r\n            amountOutMin,\r\n            path,\r\n            address(this),\r\n            block.timestamp\r\n        );\r\n\r\n        //     \r\n        delete deposits[user];\r\n        delete borrowAmounts[user];\r\n    }\r\n}\r\n",
  "sourcePath": "C:\\my\\projects\\isuDeFiMargin\\web3\\contracts\\MarginTrading.sol",
  "compiler": {
    "name": "solc",
    "version": "0.8.19+commit.7dd6d404.Emscripten.clang"
  },
  "schemaVersion": "3.4.13",
  "updatedAt": "2025-01-08T14:17:43.228Z",
  "networkType": "ethereum",
  "devdoc": {
    "kind": "dev",
    "methods": {},
    "version": 1
  },
  "userdoc": {
    "kind": "user",
    "methods": {},
    "version": 1
  }
}