{
  "contractName": "MarginTrading",
  "abi": [
    {
      "inputs": [],
      "stateMutability": "nonpayable",
      "type": "constructor"
    },
    {
      "anonymous": false,
      "inputs": [
        {
          "indexed": true,
          "internalType": "address",
          "name": "user",
          "type": "address"
        },
        {
          "indexed": false,
          "internalType": "uint256",
          "name": "amount",
          "type": "uint256"
        },
        {
          "indexed": false,
          "internalType": "address",
          "name": "token",
          "type": "address"
        }
      ],
      "name": "Borrow",
      "type": "event"
    },
    {
      "anonymous": false,
      "inputs": [
        {
          "indexed": true,
          "internalType": "address",
          "name": "user",
          "type": "address"
        },
        {
          "indexed": false,
          "internalType": "uint256",
          "name": "amount",
          "type": "uint256"
        },
        {
          "indexed": false,
          "internalType": "address",
          "name": "token",
          "type": "address"
        }
      ],
      "name": "Deposit",
      "type": "event"
    },
    {
      "anonymous": false,
      "inputs": [
        {
          "indexed": true,
          "internalType": "address",
          "name": "user",
          "type": "address"
        },
        {
          "indexed": false,
          "internalType": "uint256",
          "name": "collateralLiquidated",
          "type": "uint256"
        }
      ],
      "name": "Liquidated",
      "type": "event"
    },
    {
      "anonymous": false,
      "inputs": [
        {
          "indexed": true,
          "internalType": "address",
          "name": "user",
          "type": "address"
        },
        {
          "indexed": false,
          "internalType": "uint256",
          "name": "amountIn",
          "type": "uint256"
        },
        {
          "indexed": false,
          "internalType": "uint256",
          "name": "amountOut",
          "type": "uint256"
        },
        {
          "indexed": false,
          "internalType": "address",
          "name": "tokenIn",
          "type": "address"
        },
        {
          "indexed": false,
          "internalType": "address",
          "name": "tokenOut",
          "type": "address"
        }
      ],
      "name": "Trade",
      "type": "event"
    },
    {
      "inputs": [
        {
          "internalType": "address",
          "name": "",
          "type": "address"
        },
        {
          "internalType": "address",
          "name": "",
          "type": "address"
        }
      ],
      "name": "exchangeRates",
      "outputs": [
        {
          "internalType": "uint256",
          "name": "",
          "type": "uint256"
        }
      ],
      "stateMutability": "view",
      "type": "function",
      "constant": true
    },
    {
      "inputs": [],
      "name": "liquidationThreshold",
      "outputs": [
        {
          "internalType": "uint256",
          "name": "",
          "type": "uint256"
        }
      ],
      "stateMutability": "view",
      "type": "function",
      "constant": true
    },
    {
      "inputs": [],
      "name": "owner",
      "outputs": [
        {
          "internalType": "address",
          "name": "",
          "type": "address"
        }
      ],
      "stateMutability": "view",
      "type": "function",
      "constant": true
    },
    {
      "inputs": [
        {
          "internalType": "address",
          "name": "tokenIn",
          "type": "address"
        },
        {
          "internalType": "address",
          "name": "tokenOut",
          "type": "address"
        },
        {
          "internalType": "uint256",
          "name": "rate",
          "type": "uint256"
        }
      ],
      "name": "setExchangeRate",
      "outputs": [],
      "stateMutability": "nonpayable",
      "type": "function"
    },
    {
      "inputs": [
        {
          "internalType": "uint256",
          "name": "_amount",
          "type": "uint256"
        },
        {
          "internalType": "address",
          "name": "_token",
          "type": "address"
        }
      ],
      "name": "deposit",
      "outputs": [],
      "stateMutability": "nonpayable",
      "type": "function"
    },
    {
      "inputs": [
        {
          "internalType": "uint256",
          "name": "_amount",
          "type": "uint256"
        },
        {
          "internalType": "address",
          "name": "_token",
          "type": "address"
        }
      ],
      "name": "borrow",
      "outputs": [],
      "stateMutability": "nonpayable",
      "type": "function"
    },
    {
      "inputs": [
        {
          "internalType": "uint256",
          "name": "_amountIn",
          "type": "uint256"
        },
        {
          "internalType": "address",
          "name": "_tokenIn",
          "type": "address"
        },
        {
          "internalType": "address",
          "name": "_tokenOut",
          "type": "address"
        }
      ],
      "name": "trade",
      "outputs": [],
      "stateMutability": "nonpayable",
      "type": "function"
    },
    {
      "inputs": [
        {
          "internalType": "address",
          "name": "_user",
          "type": "address"
        },
        {
          "internalType": "address",
          "name": "_collateralToken",
          "type": "address"
        }
      ],
      "name": "liquidate",
      "outputs": [],
      "stateMutability": "nonpayable",
      "type": "function"
    },
    {
      "inputs": [
        {
          "internalType": "address",
          "name": "_user",
          "type": "address"
        },
        {
          "internalType": "address",
          "name": "_token",
          "type": "address"
        }
      ],
      "name": "getPosition",
      "outputs": [
        {
          "internalType": "uint256",
          "name": "collateral",
          "type": "uint256"
        },
        {
          "internalType": "uint256",
          "name": "debt",
          "type": "uint256"
        },
        {
          "internalType": "address",
          "name": "collateralToken",
          "type": "address"
        },
        {
          "internalType": "address",
          "name": "debtToken",
          "type": "address"
        }
      ],
      "stateMutability": "view",
      "type": "function",
      "constant": true
    }
  ],
  "bytecode": "0x6080604052606960025534801561001557600080fd5b506001600081905580546001600160a01b03191633179055610e2a8061003c6000396000f3fe608060405234801561001057600080fd5b50600436106100935760003560e01c8063782aaeea11610066578063782aaeea1461010757806386b9d81f1461011a5780638da5cb5b1461012d578063b33dc19014610158578063fb10541f146101da57600080fd5b80634031234c146100985780634b3fd148146100b4578063503fa44f146100c95780636e553f65146100f4575b600080fd5b6100a160025481565b6040519081526020015b60405180910390f35b6100c76100c2366004610c32565b6101ed565b005b6100a16100d7366004610c5e565b600460209081526000928352604080842090915290825290205481565b6100c7610102366004610c32565b6103dc565b6100c7610115366004610c88565b610579565b6100c7610128366004610c5e565b61063f565b600154610140906001600160a01b031681565b6040516001600160a01b0390911681526020016100ab565b6101ab610166366004610c5e565b6001600160a01b039182166000908152600360208181526040808420948616845293905291902080546001820154600283015492909301549094929391821692911690565b6040805194855260208501939093526001600160a01b03918216928401929092521660608201526080016100ab565b6100c76101e8366004610cc4565b61081c565b6002600054036102185760405162461bcd60e51b815260040161020f90610d00565b60405180910390fd5b600260009081553381526003602090815260408083206001600160a01b03851684529091529020805461027d5760405162461bcd60e51b815260206004820152600d60248201526c139bc818dbdb1b185d195c985b609a1b604482015260640161020f565b805460009061028d90600a610d4d565b9050808483600101546102a09190610d6a565b11156102ee5760405162461bcd60e51b815260206004820152601b60248201527f426f72726f7720616d6f756e742065786365656473206c696d69740000000000604482015260640161020f565b838260010160008282546103029190610d6a565b90915550506003820180546001600160a01b0319166001600160a01b03851690811790915560405163a9059cbb60e01b81523360048201526024810186905263a9059cbb906044016020604051808303816000875af1158015610369573d6000803e3d6000fd5b505050506040513d601f19601f8201168201806040525081019061038d9190610d7d565b50604080518581526001600160a01b038516602082015233917f6856231d021c3bf5ff021b9c481488255d5b429e5a6b699baba09c6e2916bdb2910160405180910390a2505060016000555050565b6002600054036103fe5760405162461bcd60e51b815260040161020f90610d00565b6002600055816104505760405162461bcd60e51b815260206004820181905260248201527f416d6f756e74206d7573742062652067726561746572207468616e207a65726f604482015260640161020f565b6040516323b872dd60e01b8152336004820152306024820152604481018390526001600160a01b038216906323b872dd906064016020604051808303816000875af11580156104a3573d6000803e3d6000fd5b505050506040513d601f19601f820116820180604052508101906104c79190610d7d565b503360009081526003602090815260408083206001600160a01b0385168452909152812080548492906104fb908490610d6a565b90915550503360008181526003602090815260408083206001600160a01b0386168085529083529281902060020180546001600160a01b031916841790558051868152918201929092527fe31c7b8d08ee7db0afa68782e1028ef92305caeea8626633ad44d413e30f6b2f910160405180910390a250506001600055565b6001546001600160a01b031633146105c35760405162461bcd60e51b815260206004820152600d60248201526c2737ba103a34329037bbb732b960991b604482015260640161020f565b600081116106135760405162461bcd60e51b815260206004820152601e60248201527f52617465206d7573742062652067726561746572207468616e207a65726f0000604482015260640161020f565b6001600160a01b0392831660009081526004602090815260408083209490951682529290925291902055565b6002600054036106615760405162461bcd60e51b815260040161020f90610d00565b600260009081556001600160a01b038084168252600360209081526040808420928516845291905281206001810154815491929161069f9190610d6a565b9050600081836000015460646106b59190610d4d565b6106bf9190610da6565b905060025481106107085760405162461bcd60e51b8152602060048201526013602482015272506f736974696f6e206973206865616c74687960681b604482015260640161020f565b8254600284015460015460405163a9059cbb60e01b81526001600160a01b0391821660048201526024810184905291169063a9059cbb906044016020604051808303816000875af1158015610761573d6000803e3d6000fd5b505050506040513d601f19601f820116820180604052508101906107859190610d7d565b506001600160a01b038087166000818152600360208181526040808420958b16845294905283822082815560018101929092556002820180546001600160a01b031990811690915591018054909116905590517fa5ee7a2b0254fce91deed604506790ed7fa072d0b14cba4859c3bc8955b9caac906108079084815260200190565b60405180910390a25050600160005550505050565b60026000540361083e5760405162461bcd60e51b815260040161020f90610d00565b6002600055826108905760405162461bcd60e51b815260206004820181905260248201527f416d6f756e74206d7573742062652067726561746572207468616e207a65726f604482015260640161020f565b6001600160a01b038083166000908152600460209081526040808320938516835292905220546108fa5760405162461bcd60e51b8152602060048201526015602482015274115e18da185b99d9481c985d19481b9bdd081cd95d605a1b604482015260640161020f565b3360009081526003602090815260408083206001600160a01b0386168452909152902060018101546109615760405162461bcd60e51b815260206004820152601060248201526f27379037b832b7103837b9b4ba34b7b760811b604482015260640161020f565b6001600160a01b03808416600090815260046020908152604080832093861683529290529081205490670de0b6b3a764000061099d8388610d4d565b6109a79190610da6565b6040516370a0823160e01b815230600482015290915081906001600160a01b038616906370a0823190602401602060405180830381865afa1580156109f0573d6000803e3d6000fd5b505050506040513d601f19601f82011682018060405250810190610a149190610dc8565b1015610a625760405162461bcd60e51b815260206004820152601d60248201527f4e6f7420656e6f75676820746f6b656e7320696e20636f6e7472616374000000604482015260640161020f565b3360009081526003602090815260408083206001600160a01b038916845290915281206001018054889290610a98908490610de1565b90915550503360009081526003602090815260408083206001600160a01b038816845290915281206001018054839290610ad3908490610d6a565b90915550506040516323b872dd60e01b8152336004820152306024820152604481018790526001600160a01b038616906323b872dd906064016020604051808303816000875af1158015610b2b573d6000803e3d6000fd5b505050506040513d601f19601f82011682018060405250810190610b4f9190610d7d565b5060405163a9059cbb60e01b8152336004820152602481018290526001600160a01b0385169063a9059cbb906044016020604051808303816000875af1158015610b9d573d6000803e3d6000fd5b505050506040513d601f19601f82011682018060405250810190610bc19190610d7d565b5060408051878152602081018390526001600160a01b0387811692820192909252908516606082015233907fdf26de633a33b8b191c446b3fc405e3b9d55114f367d2a294e7136139962ce4890608001610807565b80356001600160a01b0381168114610c2d57600080fd5b919050565b60008060408385031215610c4557600080fd5b82359150610c5560208401610c16565b90509250929050565b60008060408385031215610c7157600080fd5b610c7a83610c16565b9150610c5560208401610c16565b600080600060608486031215610c9d57600080fd5b610ca684610c16565b9250610cb460208501610c16565b9150604084013590509250925092565b600080600060608486031215610cd957600080fd5b83359250610ce960208501610c16565b9150610cf760408501610c16565b90509250925092565b6020808252601f908201527f5265656e7472616e637947756172643a207265656e7472616e742063616c6c00604082015260600190565b634e487b7160e01b600052601160045260246000fd5b8082028115828204841417610d6457610d64610d37565b92915050565b80820180821115610d6457610d64610d37565b600060208284031215610d8f57600080fd5b81518015158114610d9f57600080fd5b9392505050565b600082610dc357634e487b7160e01b600052601260045260246000fd5b500490565b600060208284031215610dda57600080fd5b5051919050565b81810381811115610d6457610d64610d3756fea26469706673582212209b87180a657518ef7d568ea1cfc595f60593d4aa78613bd175dd3f0e6692b17864736f6c63430008130033",
  "immutableReferences": {},
  "source": "// SPDX-License-Identifier: MIT\r\npragma solidity ^0.8.19;\r\n\r\nimport \"@openzeppelin/contracts/token/ERC20/IERC20.sol\";\r\nimport \"@openzeppelin/contracts/security/ReentrancyGuard.sol\";\r\n\r\ncontract MarginTrading is ReentrancyGuard {\r\n    address public owner;\r\n    uint256 public liquidationThreshold = 105; // 105%\r\n\r\n    struct Position {\r\n        uint256 collateral; //  \r\n        uint256 debt; //  \r\n        address collateralToken; //  \r\n        address debtToken; //  \r\n    }\r\n\r\n    mapping(address => mapping(address => Position)) private positions; //       \r\n    mapping(address => mapping(address => uint256)) public exchangeRates; //   \r\n\r\n    event Deposit(address indexed user, uint256 amount, address token);\r\n    event Borrow(address indexed user, uint256 amount, address token);\r\n    event Trade(address indexed user, uint256 amountIn, uint256 amountOut, address tokenIn, address tokenOut);\r\n    event Liquidated(address indexed user, uint256 collateralLiquidated);\r\n\r\n    constructor() {\r\n        owner = msg.sender;\r\n    }\r\n\r\n    modifier onlyOwner() {\r\n        require(msg.sender == owner, \"Not the owner\");\r\n        _;\r\n    }\r\n\r\n    //      \r\n    function setExchangeRate(address tokenIn, address tokenOut, uint256 rate) external onlyOwner {\r\n        require(rate > 0, \"Rate must be greater than zero\");\r\n        exchangeRates[tokenIn][tokenOut] = rate;\r\n    }\r\n\r\n    //     \r\n    function deposit(uint256 _amount, address _token) external nonReentrant {\r\n        require(_amount > 0, \"Amount must be greater than zero\");\r\n\r\n        //    \r\n        IERC20(_token).transferFrom(msg.sender, address(this), _amount);\r\n\r\n        //     \r\n        positions[msg.sender][_token].collateral += _amount;\r\n        positions[msg.sender][_token].collateralToken = _token;\r\n\r\n        emit Deposit(msg.sender, _amount, _token);\r\n    }\r\n\r\n    //     \r\n    function borrow(uint256 _amount, address _token) external nonReentrant {\r\n        Position storage position = positions[msg.sender][_token];\r\n\r\n        // ,   \r\n        require(position.collateral > 0, \"No collateral\");\r\n\r\n        //     \r\n        uint256 maxBorrow = position.collateral * 10; // 10x leverage\r\n        require(position.debt + _amount <= maxBorrow, \"Borrow amount exceeds limit\");\r\n\r\n        //     \r\n        position.debt += _amount;\r\n        position.debtToken = _token;\r\n\r\n        //   \r\n        IERC20(_token).transfer(msg.sender, _amount);\r\n\r\n        emit Borrow(msg.sender, _amount, _token);\r\n    }\r\n\r\n    //   \r\n    function trade(\r\n        uint256 _amountIn,\r\n        address _tokenIn,\r\n        address _tokenOut\r\n    ) external nonReentrant {\r\n        require(_amountIn > 0, \"Amount must be greater than zero\");\r\n        require(exchangeRates[_tokenIn][_tokenOut] > 0, \"Exchange rate not set\");\r\n\r\n        Position storage position = positions[msg.sender][_tokenIn];\r\n        require(position.debt > 0, \"No open position\");\r\n\r\n        uint256 rate = exchangeRates[_tokenIn][_tokenOut];\r\n        uint256 amountOut = (_amountIn * rate) / 1e18; // ,  rate     18 \r\n\r\n        //   \r\n        require(IERC20(_tokenOut).balanceOf(address(this)) >= amountOut, \"Not enough tokens in contract\");\r\n\r\n        //   \r\n        positions[msg.sender][_tokenIn].debt -= _amountIn;\r\n        positions[msg.sender][_tokenOut].debt += amountOut;\r\n\r\n        //  \r\n        IERC20(_tokenIn).transferFrom(msg.sender, address(this), _amountIn);\r\n        IERC20(_tokenOut).transfer(msg.sender, amountOut);\r\n\r\n        emit Trade(msg.sender, _amountIn, amountOut, _tokenIn, _tokenOut);\r\n    }\r\n\r\n    //   \r\n    function liquidate(address _user, address _collateralToken) external nonReentrant {\r\n        Position storage position = positions[_user][_collateralToken];\r\n        uint256 totalAssets = position.collateral + position.debt;\r\n        uint256 healthFactor = (position.collateral * 100) / totalAssets;\r\n\r\n        // ,    \r\n        require(healthFactor < liquidationThreshold, \"Position is healthy\");\r\n\r\n        uint256 collateralToLiquidate = position.collateral;\r\n\r\n        //     \r\n        IERC20(position.collateralToken).transfer(owner, collateralToLiquidate);\r\n\r\n        //   \r\n        delete positions[_user][_collateralToken];\r\n\r\n        emit Liquidated(_user, collateralToLiquidate);\r\n    }\r\n\r\n    //          \r\n    function getPosition(address _user, address _token) external view returns (uint256 collateral, uint256 debt, address collateralToken, address debtToken) {\r\n        Position storage position = positions[_user][_token];\r\n        return (position.collateral, position.debt, position.collateralToken, position.debtToken);\r\n    }\r\n}\r\n",
  "sourcePath": "C:\\Users\\\\Desktop\\isuDeFiMargin\\web3\\contracts\\MarginTrading.sol",
  "compiler": {
    "name": "solc",
    "version": "0.8.19+commit.7dd6d404.Emscripten.clang"
  },
  "schemaVersion": "3.4.13",
  "updatedAt": "2025-01-09T02:36:44.393Z",
  "networkType": "ethereum",
  "devdoc": {
    "kind": "dev",
    "methods": {},
    "version": 1
  },
  "userdoc": {
    "kind": "user",
    "methods": {},
    "version": 1
  }
}